:10000000003C0020950F0000CD000000D100000052
:1000100000000000000000000000000000000000E0
:10002000000000000000000000000000D5000000FB
:100030000000000000000000D9000000DD0000000A
:1000400010B5064C2378002B07D1054B002B02D0AE
:10005000044800E000BF0123237010BD5C000020B5
:1000600000000000D0160000044B10B5002B03D098
:100070000349044800E000BF10BDC0460000000076
:1000800060000020D0160000074AFF3053699B0B28
:100090009B035361022303728279823B1343837172
:1000A000037A9B07FCD57047B0020020024A5378C0
:1000B0005BB2002BFBDB7047000C004010230249B1
:1000C000CA681A42FCD07047000800400EBEFEE726
:1000D0000DBEFEE705BEFEE702BEFEE7214A224B4B
:1000E0001178002908D11978587809188020C9B2E8
:1000F00059701E498002C86111780131C9B211706E
:100100005978F02902D85978092908D8197849422C
:1001100049B21970197858780918C9B2597011780C
:100120005B78994203D18021104B8902D9615388B1
:10013000002B09D05388013B9BB25380002B03D185
:1001400080210A4B090599619388002B08D0938878
:10015000013B9BB29380002B02D10822044B1A6012
:100160007047C04678000020000000200044004195
:1001700098440041094B30B5D96898601B69084A1A
:10018000084C9B00814200D830BD4508D5611480E1
:10019000157DED07FCD5C018F4E7C04678000020B7
:1001A0000040004102A5FFFF044BC0B21A7ED207F7
:1001B000FCD580B2188501207047C0460008004277
:1001C000024B187E4007C00F7047C046000800422F
:1001D00010B5FFF7F5FF0028FBD0074B1A7E52073A
:1001E000FCD55A8BD20703D45A8B920700D45A8B72
:1001F000188DC0B210BDC0460008004270B50400A2
:100200000D004618B44201D1280070BD2078FFF7D8
:10021000CBFF0134F6E710B50400FFF7D9FF2070DB
:10022000012010BDF8B5002506000F002C00FFF7D7
:10023000CFFF114A137D002B1CD1FF21230A01405F
:100240004B4021020D4C5B001C5BD38A4C40A4B296
:10025000002B02D1127E002A06D030700136802F8A
:1002600002D1054A013BD3820135ADB2AF42DED1A6
:100270002000F8BD0124FBE778000020D014000026
:100280000023F0B53B4D85B00C0003902B759942CF
:1002900051D101332B76FFF79BFF2B7D002B03D031
:1002A00000232B75FFF794FFC0B2432803D07128B9
:1002B0005DD01528EFD101260120FFF775FF300032
:1002C000FFF772FFF043C0B2FFF76EFF039B80257C
:1002D000029300230193274AD38A002B02D1177E71
:1002E000002F06D00299013BD3820B000F78013317
:1002F00002933800FFF758FF019B1F4A1B0A5F401B
:100300007F00019BB85A1B02584083B2013D07B2DF
:100310000193002DDFD1180AFFF746FFF8B2FFF76F
:1003200043FFFFF755FF134F3B7D002B0BD03D756F
:10033000280005B0F0BD2B767F23E9821942AAD0B0
:1003400080349C43A7E7FF231840062805D1039B70
:1003500001368033F6B2803C0393002CACD10420EC
:10036000FFF722FF0125FFF733FF3C76E0E700258A
:10037000DEE7C04678000020D01400000023F0B56E
:100380002B4E070085B03375994212D10133642496
:1003900033764320FFF708FF264DFFF711FF0028B3
:1003A0000BD1002D07D1013C002CF2D1200005B06B
:1003B000F0BDF182EBE7013DEFE7002DF3D0012521
:1003C000FFF706FFFF231840012805D004282CD092
:1003D000002301243376E9E7022103A8FFF722FF77
:1003E00080213800FFF71EFF0190FFF7F1FE0402A5
:1003F000FFF7EEFEA4B22418019BA4B2A34209D1D8
:1004000002AB1B79AB4205D1EB4302AA5279DBB2B6
:100410009A4203D01820FFF7C7FED9E7062001351E
:10042000FFF7C2FEEDB28037CAE70620F3E7C04609
:100430007800002000350C00030010B50800110002
:1004400098478022034B12055A616422024B5A805E
:1004500010BDC0460044004178000020F0B51D4B9F
:100460000A00597EDC6985B0002930D0042A28D1E1
:100470000368302504A9520088180B3801000F27A3
:10048000AC461D003D402E003736092D01D866468A
:100490002E430E7001391B09451AAA42F1D869464C
:1004A00030230B7148334B710A2101AB9B189970B3
:1004B0000331D970043201A9E068FFF7BDFF05B030
:1004C000F0BD022A01D10388D3E70378D1E7010008
:1004D000F2E7C04678000020F8B51C4E0500080081
:1004E000711CCB7F1400002B12D1194B194A1A4FE3
:1004F0001A645A6C920B92035A645A6C3A405A64CA
:10050000A22240235200AF5C3B43AB540123CB7784
:100510004827FF37EB5DDB07DA0F002B13D00C4ABF
:10052000536C9B049B0C9C4202D9546CA404A40CF5
:100530002200084900F04AFF0123EB55F61800237A
:10054000F3772000F8BD1400FBE7C04678000020D8
:10055000B002002070030020FF3F00F013B56B468F
:10056000DC1D044B01222100586AFFF7B5FF2078FB
:1005700016BDC046780000200823F0B58DB000AF4E
:10058000FA18D1180B00B44A31CA31C331CA31C389
:1005900011CA11C3B14AB24C93685B035B0F9B0055
:1005A0005B5811002361926892B253432200E360CA
:1005B0000B8B3032DB05DB0F1370002363632300EA
:1005C0007A2238331A70E36940211B69A54898479D
:1005D000002804D00822A44B1A606423A380A34BF4
:1005E000A04AE0671A600023A04A53609F4DE26F63
:1005F0006B689342E7D22B681B78FF2B53D0232BD9
:1006000000D0B7E1637E002B05D0E3690222984950
:10061000D868FFF711FF230038331B78532B4AD1DA
:10062000E66F6B689E4217D92A68013301323B603E
:100630007A60AB683A68B61A9E4200D91E00320052
:100640007968606BEE6000F0C1FE3B682E749B1908
:100650006B607B689B192B606B68A968013B6B60C2
:100660002B68013B2B602B7C8B420BD2C91AE369B0
:10067000606B9B699847002804D008227A4B1A6067
:100680006423A380C04623007A2238331A700022E4
:10069000764B9A60637E934205D0E3697549D868CA
:1006A0000132FFF7C9FE714B5A6801325A601A686D
:1006B00001321A609AE7522B18D1230030331B788D
:1006C000002B06D08023626B9B059A4201D26A4BB5
:1006D0006363664AE36991685B69606B984780224F
:1006E000664B12055A6164236380CCE74F2B03D11C
:1006F000AB68626B1370C6E7482B03D1AB68626BC3
:100700001380C0E7572B03D1636BAA681A60BAE75E
:100710002200303212786F2B0DD1002A06D0636B85
:10072000574A043B934201D8083565630121606B49
:10073000FFF794FEA7E7682B0DD1616B002A04D068
:100740004F480B1F0022834200D90A88280002214B
:10075000AA600830ECE7772B0DD1616B002A04D03A
:1007600047480B1F0022834200D90A682800042151
:10077000AA600830DCE7002A1BD1472B19D13B4B7C
:100780009B6872B6EFF3088238494A611A6882F3AF
:1007900008885B6818474B6983F3088862B6334B57
:1007A0001B7E002B00D16EE7E36906201B6898478B
:1007B00069E7542B08D10222533B63762C49E36945
:1007C000D868FFF739FE5EE74E2B0BD1637E002B16
:1007D00005D1E36902222649D868FFF72DFE0023E0
:1007E000637650E7562B1ED1E3690122D86825496C
:1007F000FFF722FEE3691849D86803222031FFF78A
:100800001BFEE3690122D8681F49FFF715FEE36963
:1008100011490E22D8682431FFF70EFE1B4917221A
:10082000E3692960CCE7582B0BD1002A06D1A868D0
:10083000FFF7A0FC0322E3691549C1E7802080018E
:10084000F6E7592B63D1AB68666B002B24D1EE61C0
:100850000322E3690F49B3E74C1400000040004154
:1008600078000020B100002094440041F8000020EE
:100870002B1400002E140000005000200044004102
:10088000FBFFFF1F04140000061400000814000002
:100890002014000024140000002A06D08020A36841
:1008A0008001834201D0FFF765FC8021444B444A1C
:1008B0009B6844487B60D56942689B088A434260D4
:1008C000226992083A60404A9446002BC0D06146A3
:1008D0003C4A11803B4A127DD207FBD530000022F2
:1008E0007D60396806007D688A4201D09A4208D14D
:1008F0003449364808803349097DC907FBD59B1A1E
:10090000E3E77968013220C9796020C0E9E75A2B12
:1009100000D0B8E6A9680025636B2D4859188B42B2
:100920001ED1E3690122D8682A49FFF785FD072314
:100930000F222A40D0B201002D093031092A00DDF2
:1009400007310822BA18D154013BF1D20822E369D9
:10095000B918D868FFF770FD0322E3691E492FE735
:100960001E782A0A72405200125A2D025540ADB22A
:100970000133D4E71A00303AD1B2092904D8AB6860
:100980001B011343AB608EE61A00413A052A03D8D7
:10099000AA68373B1201F4E71A00613A052A03D826
:1009A000AA68573B1201ECE700222C2B03D1AB685D
:1009B0006363AA6077E6210038310B70F9E7C0461F
:1009C000F80000200040004144A5FFFF04A5FFFF00
:1009D000D0140000281400002A140000F7B500907D
:1009E00001201C4E1C005B0115000193F218536995
:1009F00010325B005B0F03339840A84220D880235D
:100A000050681B06034353606301F6183161736934
:100A1000AD049B0BAA0C9D031543756173690E4AC7
:100A2000083413407361009B64011C190223E371B5
:100A30006279823B13436371E3799B07FCD5F7BD71
:100A4000064BA701FF182A00380000F0BFFC390050
:100A5000DAE7C046B0020020FF3F00F0300200207D
:100A6000012307B5019004481A00406A01A9FFF765
:100A7000B5FF01200EBDC0467800002010B50C0067
:100A80000A00010003480123406AFFF7A7FF200086
:100A900010BDC0467800002070B50600C0B0080048
:100AA00015000C0000F09BFC6B46400002306A46CB
:100AB000187003236D085370013C023B5A0010006C
:100AC000E15C6844002906D1002369463000FFF745
:100AD00085FF40B070BDAB42F6DA01800133EDE72F
:100AE000F7B505680600A98B08220B002800134003
:100AF000FF30114227D080234021C024AA8309322D
:100B0000AB72427081714371BA4BBB4D5A68A405F8
:100B10002A4022435A605A692A401443B74A5C610A
:100B20001A60B74AB74C1A615A6814408022920280
:100B300022435A605A68920B92035A600023417113
:100B400033713079FEBD1024017A2142F9D0AB49CE
:100B5000AD4A0F780472D7774F78AC4AAC4CD77750
:100B60008F786784CF78628C3F02174367840F7950
:100B7000A7844F79A28C3F021743A7848F79A34A99
:100B8000E784C979E78C090239434027E18447713A
:100B9000D17F9D4A0902D27F11439E4A914200D1E2
:100BA00064E100DD7AE00222FF32914200D1A1E04F
:100BB000013291422EDA812900D146E108DC8029F8
:100BC00000D142E12023FF35AA791343AB71B8E786
:100BD0008229F7D150222385A38C134022002A3288
:100BE00013700F22A38C1340A384A38C032BE9D88A
:100BF00023002A331B78002B00D12BE1A38C083370
:100C00005B01EB189B799B062100DB0F23852831C4
:100C100000231DE1C0239B00994200D121E17E4BBE
:100C2000994267D09142CDD18022A38C13402200FB
:100C30002A3213700F22A38C1340A384638C002BE1
:100C4000C0D1A38C002BBDD0A38C032BBAD823001A
:100C50002A331B78002B00D12EE1A38C08335B01D3
:100C6000EB189B799B0645D5A38C113208335B01A9
:100C7000EB181A71A38C08335B01EB18DB795B0668
:100C800038D5A38C203208335B01EB18DA71A38CC2
:100C90003E3A08335B01EB181A712BE090200001FB
:100CA000814200D178E018DCD022D20091422CD0D1
:100CB00088221201914200D1C4E0A023DB009942B6
:100CC00000D07FE72800FFF7DFF98023628C5B42CA
:100CD00013433268DBB2937233E7504B994200D131
:100CE0000CE10BDC4E4B994200D16BE74D4B994226
:100CF00000D067E72800FFF7C7F922E74A4B99427F
:100D000000D05FE7638C7371F4E7638C1B0A012BDF
:100D10000CD11222E38C934201D8E28C92B20023D0
:100D2000424934312800FFF759FE0AE7638C1B0A59
:100D3000022B09D14322E38C934201D8E28C92B278
:100D40003B4900230431EDE7638C1B0A032B00D0E1
:100D500038E7638CDBB2012B13D0022B18D0002BA9
:100D600000D02FE731490422463101A800F02EFBC4
:100D70000422E38C934201D8E28C92B2002301A9B1
:100D8000D0E7E28C2B49D2B22800FFF785FED8E6E7
:100D9000E28C2949D2B2F7E7638C28003371FFF760
:100DA00073F9A0230322C0215B00EA54114B1248BF
:100DB0005A6C890502400A435A644622FF32AF54F6
:100DC0001E4A30241A6490225200AC545A6B0240DE
:100DD00011439222596380215200A954184A1A6380
:100DE000B0225200AF545A6F10405867B2235B00D4
:100DF000E954A6E6B0020020FFFFFF8F3003002079
:100E000030020020FF3F00F0F9000020FA0000202F
:100E1000F80000200203000001030000A1210000EF
:100E2000010B000021200000212200004C140000D2
:100E300000000020301400003C140000700300206B
:100E4000700200200122311D6CE72100238528312A
:100E5000022267E7A38C08335B01EB189B79DB0662
:100E6000D2E620238279134383716AE68022A38C21
:100E70000F21134022002A321370A38C0B40A3844D
:100E8000638C002B00D09DE6A38C002B00D199E64B
:100E9000A38C032B00D995E61378002B06D02022D3
:100EA000A38C08335B01EB185A7123E7A38C102243
:100EB00008335B01EB18F7E7A38C08335B01EB18F1
:100EC0009B79DB0600D415E71022A38C08335B0165
:100ED000EB181A71A38C08335B01EB18DB799B06C6
:100EE00000D407E7A38C921808335B01EB18DA7182
:100EF000A38C1F3A08335B01EB18CDE60822E38C84
:100F0000934201D8E28C92B201490023483109E7AB
:100F10000000002010B5074C20002430FFF7E0FD52
:100F2000002805D04823626AFF33D05CC007C00F99
:100F300010BDC0467800002070B5084E0400300097
:100F400024300D00FFF7CCFD03000020834204D0C5
:100F50002A002100706AFFF7BFFA70BD78000020F8
:100F6000F8B50B4E0500300024300C00FFF7B8FD3B
:100F70002700002808D1040008E03A002900706A20
:100F8000FFF7AAFA3F1A2D18002FF6D12000F8BD5E
:100F9000780000201148124B10B5984210D111482A
:100FA000114B98420AD0C11E0022994203D8033344
:100FB0001A1A92089200002100F000FA00F018F8C6
:100FC0000A498142EBD0C41E00229C4203D803335D
:100FD0001A1A9208920000F0F9F9E0E700000020E8
:100FE0005C0000205C000020B0030020D41600004C
:100FF000F8B5C94B00AF1A6801321ED0C74AC849BC
:10100000D8B2D162002818D1C64A1178C64AC90799
:10101000CC0F00290BD010601A6882F30888FF22D9
:1010200019009143C14A91605B68184705E0106858
:10103000BF49884200D055E114601E210226BD4AF6
:10104000BD4D53688B4333435360BC4BAB82AB8A7B
:101050003343AB82EB683342FCD00123B84CA3602E
:10106000FFF724F8B74B6360FFF720F88223DB011A
:101070006380FFF71BF88022AB8C9343AB84FFF7B0
:101080001DF8B14BEB62FFF719F8AA8CAF4B134375
:10109000AB84FFF713F8AB8C1E434023AE84802152
:1010A000EA680A42FBD0EA681A42F8D00025FFF746
:1010B00005F8A560FEF7FAFFA54B6360FEF7F6FFA3
:1010C000C022A448A44B994943600B6A12061B0234
:1010D0001B0A13430B6207238560036062B601227B
:1010E0009E490B7813430B700F219D4B1878884352
:1010F000187002201D78284318709A4805782A43F2
:1011000002701A780A401A70202219780A431A705D
:10111000042395490A6A13430B62944B63806378F6
:101120005BB2002BFBDB924BDA699207FCD4022006
:101130001A6882431A60DA69D207FCD4012218685F
:1011400002431A601A68D207FCD4DA69D207FCD4C9
:10115000DA699207F9D4874A1A60DA695207FCD42F
:10116000C02292025A60844A9A81D8698007C20FCD
:101170000028FADB02201D6828431860674B7F4D6A
:1011800030331A70654B2A7531331A70634B323322
:101190001A70624B33331A70604B34331A70202349
:1011A000CA6913430122CB6175490B7813430B7055
:1011B0000F21744B187888431870187884460620DD
:1011C00066463043187070480678324302701A78C9
:1011D0000A401A70602219780A431A706B4B6380B8
:1011E00063785BB2002BFBDB0123694C227813434D
:1011F0002370A378DB07FCD41F2066490B685A0BC9
:101200000240824200D10522238D634E02403340CA
:1012100092011A4322850B689B0C03401F2B00D1BF
:10122000023B1F20228D0340824313430722238564
:101230000B68DB0D1340934200D103230721228D5D
:101240000E000B4055491B030A4013437F222385A0
:10125000237853481340237004232278002113433A
:101260000C222370606223899343238123890B3AE4
:10127000934323817F3200F0A1F80022494B2A8555
:10128000EB62022321786C620B4380212370464B72
:1012900089029960082145482E4C0160444801604C
:1012A0008021090599609961C0212B4B1F4863601B
:1012B000036A09061B021B0A0B430362A260266035
:1012C000164C35342800EB6A24309847002801D0AA
:1012D000012323702378002B0BD0364B4C33EB616A
:1012E000FFF74AF91160344901390029FCD1116036
:1012F00092E62378002BE5D1FEF762FF0028DFD0CD
:10130000FEF766FF2328DBD12A4B044A6833EB61E2
:1013100001231376E4E7C04600200000F800002017
:101320000420000038040040FC3F002000ED00E0F5
:101330003581730700400041000800400C060000A2
:10134000000C004001050100B805FF7D040A000003
:101350000007030010E000E0E70300004A440041FA
:10136000354400414B44004100040040144000005B
:1013700000080042040031402AF6FFFF78000020F8
:10138000584400413C44004159440041064000009B
:1013900000500041246080003FF8FFFFFF8FFFFFF7
:1013A000B0020020E10A00000044004188440041EE
:1013B000984400414C14000048E8010003008218E2
:1013C000934200D1704719700133F9E7002310B53B
:1013D0009A4200D110BDCC5CC4540133F8E700231D
:1013E000C25C0133002AFBD1581E7047F8B5C046D5
:1013F000F8BC08BC9E467047F8B5C046F8BC08BCAF
:101400009E46704776002000204D617920323720BB
:10141000323032312031303A30353A32350A0D002F
:10142000580A0D00590A0D005A00230A0D003E000B
:1014300041726475696E6F204C4C43004172647553
:10144000696E6F205A65726F00000000080000008E
:10145000100000002000000040000000800000009C
:10146000000100000002000000040000322E3000E5
:101470005B41726475696E6F3A58595A505D00004D
:10148000120100020200004041234D00000201024F
:101490000001040309040000610A00005D0500006A
:1014A000150F00007D0A0000390F00007D0A0000C2
:1014B000610F0000A9010000D1010000C10100007E
:1014C000FD01000017020000810200007D03000002
:1014D00000002110422063308440A550C660E770B0
:1014E000088129914AA16BB18CC1ADD1CEE1EFF158
:1014F0003112100273325222B5529442F772D66200
:10150000399318837BB35AA3BDD39CC3FFF3DEE3A7
:101510006224433420040114E664C774A44485544F
:101520006AA54BB528850995EEE5CFF5ACC58DD5F7
:101530005336722611163006D776F6669556B4469F
:101540005BB77AA719973887DFF7FEE79DD7BCC747
:10155000C448E5588668A7784008611802282338EF
:10156000CCC9EDD98EE9AFF9488969990AA92BB997
:10157000F55AD44AB77A966A711A500A333A122A3F
:10158000FDDBDCCBBFFB9EEB799B588B3BBB1AABE7
:10159000A66C877CE44CC55C222C033C600C411C8F
:1015A000AEED8FFDECCDCDDD2AAD0BBD688D499D37
:1015B000977EB66ED55EF44E133E322E511E700EDF
:1015C0009FFFBEEFDDDFFCCF1BBF3AAF599F788F87
:1015D0008891A981CAB1EBA10CD12DC14EF16FE167
:1015E0008010A100C230E32004502540467067609F
:1015F000B9839893FBA3DAB33DC31CD37FE35EF3B7
:10160000B1029012F322D2323542145277625672EE
:10161000EAB5CBA5A89589856EF54FE52CD50DC506
:10162000E234C324A014810466744764245405443E
:10163000DBA7FAB79987B8975FE77EF71DC73CD756
:10164000D326F2369106B01657667676154634568E
:101650004CD96DC90EF92FE9C899E9898AB9ABA9A6
:101660004458654806782768C018E1088238A328DE
:101670007DCB5CDB3FEB1EFBF98BD89BBBAB9ABBF6
:10168000754A545A376A167AF10AD01AB32A923A2E
:101690002EFD0FED6CDD4DCDAABD8BADE89DC98D46
:1016A000267C076C645C454CA23C832CE01CC10C7E
:1016B0001FEF3EFF5DCF7CDF9BAFBABFD98FF89F96
:1016C000176E367E554E745E932EB23ED10EF01ECE
:0416D0000000000016
:1016D40001140000090243000201008032090400E1
:1016E4000001020200000524001001042402000588
:1016F400240600010524010001070583030800FFF7
:1017040009040100020A00000007058102400000EC
:10171400070502024000000000C2010000000800AA
:0C1724000100000069000000410000000E
:0400000300000F9555
:00000001FF
